S00D000064656D6F362E737265633C
S3150800000000A00020CD7100081D7200081D720008AE
S315080000101D7200081D7200081D720008000000000D
S315080000200000000000000000000000001D7200082B
S315080000301D720008000000001D7200081D720008ED
S315080000401D7200081D7200081D7200081D72000846
S315080000501D7200081D7200081D7200081D72000836
S315080000601D720008C95F0008BD5F00081D72000800
S315080000701D7200081D7200081D7200081D72000816
S315080000801D7200081D7200081D7200081D72000806
S315080000901D7200081D7200081D720008956500088B
S315080000A01D7200081D7200081D7200081D720008E6
S315080000B01D7200081D7200081D7200081D720008D6
S315080000C01D7200081D7200081D7200081D720008C6
S315080000D01D7200081D7200081D7200081D720008B6
S315080000E0896500081D7200081D7200081D72000847
S315080000F01D7200081D7200081D7200081D72000896
S315080001000000000000000000000000001D7200084A
S315080001101D7200081D720008B14600081D7200080D
S315080001201D7200081D7200081D7200081D72000865
S315080001301D7200081D720008000000000000000083
S315080001401D7200081D7200081D72000800000000DC
S315080001500000000000000000000000000000000091
S3150800016000000000000000001D7200081D72000853
S315080001701D720008000000000000000000000000DA
S30D08000180000000001D720008D2
S315080001C010B5054C237833B9044B13B10448AFF383
S315080001D000800123237010BD4408002000000000A1
S315080001E0148D0008084B10B51BB108490848AFF331
S315080001F000800848036803B910BD074B002BFBD0E5
S31508000200BDE81040184700BF00000000480800205D
S31508000210148D00084408002000000000704700BF45
S31508000220704700BF10B5074B4FF0FF3200241A6124
S315080002301C61DA60DC609A629C6200F0F3FD20467D
S3150800024010BD00BF00100240084B094A1B6810B5D4
S31508000250A2FB03230446980900F002F9214600226E
S315080002604FF0FF3000F098F8002010BD0000002085
S31508000270D34D6210074A08B5136843F0100313609C
S31508000280032000F077F80F2004F0B8F900F0C8FD55
S31508000290002008BD00200240024A1368013313609B
S315080002A0704700BF2C090020014B1868704700BF33
S315080002B02C09002010B582B00190FFF7F5FF04461F
S315080002C0FFF7F2FF019B001B9842F9D302B010BD5D
S315080002D0024A136823F002031360704710E000E037
S315080002E0024A136843F002031360704710E000E007
S315080002F04FF08270704700BF014B1868000C7047BA
S31508000300002004E0024B1868C0F30B00704700BFDA
S31508000310002004E0024A536843F001035360704723
S31508000320002004E0024A536823F001035360704733
S31508000330002004E0024A536843F002035360704702
S31508000340002004E0024A536823F002035360704712
S31508000350002004E0024A536843F0040353607047E0
S31508000360002004E0024A536823F0040353607047F0
S31508000370002004E0074AD1684FF6FF030B4000024D
S3150800038043F0BF6300F4E06043F400330343D360F3
S31508000390704700BF00ED00E0194BDB68C3F302238A
S315080003A030B4C3F10705042D03F1040428BF04255E
S315080003B0062C18D9033B01249C40013C2240012409
S315080003C0AC40013C214001FA03F3002842EA03024B
S315080003D00CDB00F1604000F561401201D2B280F8F2
S315080003E0002330BC704700221346E8E7054B00F0AF
S315080003F00F0012010344D2B21A7630BC704700BF10
S3150800040000ED00E0FCEC00E000F01F0101234009CC
S31508000410024A8B4042F82030704700BF00E100E0F6
S315080004204309203300F01F000122034902FA00F0B5
S3150800043041F82300704700BF00E100E0BFF34F8F8B
S315080004400549064BCA6802F4E0621343CB60BFF362
S315080004504F8F00BFFDE700BF00ED00E00400FA057E
S315080004600138B0F1807F0ED2084B10B4084C5860A2
S31508000470F02084F823000022072110469A601960AC
S315080004805DF8044B70470120704700BF10E000E09C
S3150800049000ED00E0044A0549536A002023F480333E
S315080004A053624860704700BF00ED00E090ED00E041
S315080004B0044B054A40F001005860536A43F4803300
S315080004C05362704790ED00E000ED00E0F0B4134E83
S315080004D04378B36003781BB9F3603361F0BC7047A7
S315080004E04368F360C47A037B0578817A427B877B0D
S315080004F0240644EA03742C4344EAC141C37B447A84
S31508000500007A41EA824141EA474242EA034242EA24
S31508000510042343EA40033361F0BC704790ED00E0E2
S31508000520024BD868C0F30220704700BF00ED00E018
S31508000530002870B422DB00F1604000F5614090F8B5
S315080005400003000901F00701C1F10706042E01F1B5
S31508000550040428BF0426062C0DD9033901248C402F
S31508000560013C04400125B540C840691E084010609A
S315080005701C6070BC704700242146F3E7034C00F06A
S315080005800F000444207E0009DCE700BFFCEC00E015
S315080005904309403300F01F000122034902FA00F024
S315080005A041F82300704700BF00E100E04309054A0F
S315080005B0403300F01F0052F8233023FA00F000F011
S315080005C00100704700E100E04309603300F01F00B6
S315080005D00122034902FA00F041F82300704700BFE0
S315080005E000E100E04309054A803300F01F0052F895
S315080005F0233023FA00F000F00100704700E100E024
S31508000600044A136804280CBF43F0040323F00403C8
S315080006101360704710E000E0704700BF08B5FFF7A9
S31508000620FBFF08BD002837D0F0B447688668C46861
S31508000630016903463E4300685A699D69174F264378
S315080006400E430168DC693243154321F47F522C437B
S3150800065022F0300222430221B84283F821100260B8
S3150800066016D90F4A0F49104CDC630244A1FB02124B
S315080006701209920000201A6401229862D86218634F
S315080006805863986383F8200083F82120F0BC7047EC
S31508000690064A0449064CE7E701207047070402406A
S315080006A0F8FBFDBFCDCCCCCC00040240F8FFFDBF63
S315080006B00000024050B3026810B40146144C10689A
S315080006C0002320F00100A24210601360536093607B
S315080006D0D36017D90F4B104C1048C8631344A4FBBA
S315080006E003231B099B0001220B6402FA03F3002271
S315080006F043605DF8044B8A63104681F8212081F82F
S3150800070020207047064B044C0648E6E70120704750
S3150800071007040240F8FBFDBFCDCCCCCC0004024058
S31508000720F8FFFDBF00000240F0B590F82040012C0C
S315080007300BD090F821400125AC4280F8205006D015
S31508000740002380F820300220F0BD0220F0BD0568A5
S31508000750C76B002686632E684FF0020C80F821C00E
S3150800076026F0010E066C4068C5F800E0102804FA69
S3150800077006F47C606B600BBFAA60A960E960EA605A
S315080007802B6843F001032B600020F0BDF0B590F80C
S315080007902040012C0BD090F821400125AC4280F86E
S315080007A0205006D0002380F820300220F0BD022019
S315080007B0F0BD0568076CD0F83CE0002686632E6815
S315080007C0BC4026F0010647684FF0020C80F821C0AD
S315080007D02E60CEF804406B60C36A102F0BBFAA6068
S315080007E0A960E960EA604BB12B6843F00E032B6001
S315080007F02B6843F001032B600020F0BD2B6843F003
S315080008000A032B602B6823F004032B60F0E700BF74
S315080008100268016C0346106870B420F00E00DE6BA7
S31508000820106010680125002405FA01F120F0010086
S3150800083010607160204683F8215083F8204070BC10
S31508000840704700BF90F82120022AF8B503D0042289
S3150800085082630120F8BD0268016C1468C76B466B99
S3150800086024F00E0414601468012524F001041460B1
S3150800087005FA01F10024796080F8215080F82040BB
S3150800088016B1B0472046F8BD3046F8BD2DE9F84FF9
S3150800089090F82130022B07D004220023826380F8C7
S315080008A020300120BDE8F88F04682468A4062DD4FA
S315080008B041B3036C04249C40174688468146FFF7DB
S315080008C0F3FC4FF0080A8346D9F84010D9F83C5093
S315080008D00AFA01F204E02E6816421DD17B1C28D1C3
S315080008E02B682340F7D0B8F1000F34D1022303FA5E
S315080008F001F10123696089F82130002089F8200078
S31508000900BDE8F88F046C03FA04F4D5E74FF4807356
S3150800091083630120BDE8F88F012202FA01F16960BC
S315080009201046C9F8382089F8212089F82030BDE812
S31508000930F88F2FB1FFF7B8FCCBEB00008742C3D284
S31508000940202201200023C9F8382089F8210089F8D7
S315080009502030BDE8F88F042303FA01F16960CCE77B
S31508000960F0B4C56B026C29680468042393401942E5
S3150800097026680DD077070BD52268920603D422681D
S3150800098022F004022260C26A6B60C2B1F0BC104752
S3150800099002239340194214D0B70712D5226892064B
S315080009A006D42268012122F00A02226080F821106A
S315080009B0826A6B60002380F82030002AE6D1F0BCFA
S315080009C07047082393400B42F9D03307F7D52168BF
S315080009D0066B012321F00E0103FA02F200272160BB
S315080009E06A60836380F8213080F82070002EE6D094
S315080009F03346F0BC184700BF90F82030012B0FD0C3
S31508000A0010B4044690F821000123984284F8203057
S31508000A1008D00022184684F820205DF8044B704759
S31508000A200220704703290FD8DFE801F00B080502FA
S31508000A3062630023EDE722630023EAE7E26200230C
S31508000A40E7E7A2620023E4E70123E2E790F8203013
S31508000A50012B02460BD090F821000123984282F818
S31508000A60203006D00021184682F820107047022050
S31508000A707047042916D8DFE801F0120F0C090300A5
S31508000A8000239362D36213635363EBE70023536334
S31508000A90E8E700231363E5E70023D362E2E70023D0
S31508000AA09362DFE70123DDE790F82100704700BF76
S31508000AB0806B70478C460968002900F0DA802DE9BA
S31508000AC0F04FDFF8C4E183B000254FF0010879E064
S31508000AD04FEA45090323D0F800A003FA09F3DB43DC
S31508000AE004F0030B0AEA030A0BFA09FB013F4BEA77
S31508000AF00A0A012FC0F800A040F29780C768DCF800
S31508000B0008203B4002FA09F21343C360E30055D5B7
S31508000B10584B584A9B6943F001039361936925F042
S31508000B20030909F1804903F0010309F580390193A6
S31508000B3005F00303019AD9F808209B000F279F4068
S31508000B40B0F1904F22EA070200F086804A4FB84279
S31508000B5000F08480494FB84200F08380484FB8427D
S31508000B6000F08380474FB8420CBF0427052707FAD1
S31508000B7003F31343C9F80830DEF80030F243E703FD
S31508000B804CBF33431340CEF80030DEF80430A703D9
S31508000B904CBF33431340CEF80430DEF80830E70282
S31508000BA04CBF33431340CEF80830DEF80C30A402AD
S31508000BB054BF02EA03061E43CEF80C60013531FA2B
S31508000BC005F346D008FA05F212EA0106F6D0DCF873
S31508000BD0044024F01007022F7FF47AAF4FEAD50BB2
S31508000BE000EB8B0B05F0070ADBF82030DCF81070F9
S31508000BF04FEA8A0A4FF00F0909FA0AF923EA09099E
S31508000C0007FA0AF343EA0903CBF820304FEA450905
S31508000C100323076803FA09F3DB4304F0030A1F40BA
S31508000C200AFA09FA4AEA07070760876807EA030A19
S31508000C30DCF80C7007FA09F747EA0A07876047687D
S31508000C40C4F3001A27EA02075246AA403A4342600A
S31508000C5054E703B0BDE8F08F00238AE708FA03F3E8
S31508000C6087E7022707FA03F383E7032707FA03F35D
S31508000C707FE770470010024000040048000800485B
S31508000C80000C00480010004800040140002900F04C
S31508000C9088802DE9F04FDFF818C1DFF818B183B066
S31508000CA000234FF001084FF0030A4FF00F0903E045
S31508000CB0013331FA03F264D008FA03F511EA05079D
S31508000CC0F6D05A0004680AFA02F2D243DE08144043
S31508000CD000EB8606046003F00704D6F820E0A400BB
S31508000CE009FA04F42EEA0404346284681440846021
S31508000CF0446824EA05054560C56823F0030404F141
S31508000D0080442A4004F58034C26003F00302A568D3
S31508000D10920009FA02F63540B0F1904F019533D0AA
S31508000D20584533D01F4DA84233D01F4DA84235D061
S31508000D301E4DA8420CBF4FF0040E4FF0050E0EFADA
S31508000D4002F2019D9542B3D1A26822EA0606A66080
S31508000D50DCF80020FF433A40CCF80020DCF80420F9
S31508000D603A40CCF80420DCF808203A40CCF80820B1
S31508000D70DCF80C200133174031FA03F2CCF80C707A
S31508000D809AD103B0BDE8F08F0022DAE708FA02F23A
S31508000D90D7E74FF0020E0EFA02F2D2E70AFA02F28B
S31508000DA0CFE7704700080048000C004800100048CC
S31508000DB000040140000400480369194214BF0120D9
S31508000DC0002070470AB9816270478161704700BF89
S31508000DD0436959404161704782B04FF480330193AB
S31508000DE0019B0B430193019BC361C161019BC361D5
S31508000DF0C3690193C06980F48030C0F3004002B033
S31508000E00704700BF704700BF044A5169014200D1CC
S31508000E10704708B5506105F041FC08BD0004014063
S31508000E20704700BF704700BF704700BF704700BFDC
S31508000E300F4B104A1968104841F0810110B4196027
S31508000E4059680E4C0A405A601A6822F0847222F4D5
S31508000E5080321A601968002221F4802119605A60CC
S31508000E60DA621A639A6004605DF8044B704700BF43
S31508000E70001002400CC0FFF80000002000127A00A3
S31508000E802DE9F0430368D90783B0044643D5C24920
S31508000E904A6802F00C02042A00F088814A6802F0C7
S31508000EA00C02082A00F07E816368B3F5803F00F0E3
S31508000EB04282002B00F0A681B3F5A02F00F09F8296
S31508000EC0B54B1A6822F480321A601A6822F4802216
S31508000ED01A60B14DA368EA6A22F00F021343EB6267
S31508000EE0FFF7E2F94FF400380746012605E0FFF759
S31508000EF0DBF9C01B642800F2BE8198FAA8F32A68B9
S31508000F0098FAA8F3B3FA83F303F01F0306FA03F378
S31508000F101342ECD023689F0744D59F4A516811F0C5
S31508000F200C0F00F0F980516801F00C01082900F057
S31508000F30EF802269002A00F0D881012292FAA2F3F2
S31508000F40B3FA83F303F1845303F584139B0016461F
S31508000F501A60FFF7A9F94FF0020807468E4D05E01B
S31508000F60FFF7A2F9C01B022800F2858198FAA8F3B8
S31508000F7089492A6898FAA8F3B3FA83F303F01F039A
S31508000F8006FA03F31342EBD00A68F82393FAA3F39D
S31508000F906069B3FA83F322F0F80200FA03F3134305
S31508000FA00B6023681D074FD458077BD57A4BDA693F
S31508000FB0D10000F11281DA6942F08052DA61DB6908
S31508000FC003F080530193019B4FF00108734D2B6882
S31508000FD0DA0540F14081E368012B00F0B281002B6D
S31508000FE000F05781052B6C4B1A6A00F0158222F027
S31508000FF001021A621A6A22F004021A62FFF754F909
S315080010004FF002090746644E012515E099FAA9F33F
S31508001010726A99FAA9F3B3FA83F303F01F0305FA80
S3150800102003F3134240F02B81FFF73EF941F2883370
S31508001030C01B984200F21F8199FAA9F399FAA9F3FD
S31508001040002BE3D0326AE4E7A269002A7BD00122AA
S3150800105092FAA2F1524B504EB1FA81F10B449B0021
S3150800106015461A60FFF720F94FF00208074605E013
S31508001070FFF71AF9C01B022800F2FD8098FAA8F3B8
S3150800108098FAA8F398FAA8F3726A98FAA8F3B3FA42
S3150800109083F303F01F0305FA03F31342E8D023682A
S315080010A0580783D4E3697BB33B4D6A6802F00C02A8
S315080010B0082A44D0022B4FF0807300F0488193FA37
S315080010C0A3F3B3FA83F303F1845303F584139B0064
S315080010D000221A60FFF7E8F84FF000740746012669
S315080010E005E0FFF7E1F8C01B022800F2C48094FA75
S315080010F0A4F32A6894FAA4F3B3FA83F303F01F035C
S3150800110006FA03F31342ECD1002003B0BDE8F083DE
S315080011105268D6033FF50DAF022292FAA2F11E4994
S31508001120086892FAA2F2B2FA82F202F01F020121CC
S3150800113001FA02F2024253D022698A4250D00120B3
S3150800114003B0BDE8F083012595FAA5F1144B124EBC
S31508001150B1FA81F10B449B004FF002081A60FFF7C1
S31508001160A3F8074605E0FFF79FF8C01B022800F220
S31508001170828098FAA8F398FAA8F398FAA8F3726AFC
S3150800118098FAA8F3B3FA83F303F01F0305FA03F3F7
S315080011901342E8D183E700BF001002400070004008
S315080011A0208190104A68D2037FF57EAE4FF4003254
S315080011B092FAA2F19C49086892FAA2F2B2FA82F26D
S315080011C002F01F02012101FA02F202423FF4A3AE25
S315080011D06268002A7FF49FAEB1E74FF00008F5E693
S315080011E0914DF822296892FAA2F26069B2FA82F25F
S315080011F021F0F80100FA02F20A432A601D077FF57A
S31508001200D3AE21E7884D2B6823F480332B602B68F7
S3150800121023F480232B60EA6AA36822F00F021343A3
S31508001220EB62FFF741F84FF400380746012604E061
S31508001230FFF73AF8C01B64281DD898FAA8F32A685D
S3150800124098FAA8F3B3FA83F303F01F0306FA03F335
S315080012501342EDD15EE62B6843F480732B60FFF7EB
S3150800126023F806462B68DB053FF5B5AEFFF71CF8F5
S31508001270801B6428F6D9032003B0BDE8F083B8F1D3
S31508001280000F3FF40FAF684AD36923F08053D36148
S3150800129008E7654D2B6A23F001032B622B6A23F0BE
S315080012A004032B62FFF700F84FF0020907460126F0
S315080012B013E099FAA9F36A6A99FAA9F3B3FA83F3D8
S315080012C003F01F0306FA03F31342D8D0FEF7ECFF28
S315080012D041F28833C01B9842CDD899FAA9F399FAF6
S315080012E0A9F3002BE5D02A6AE6E7012595FAA5F3C6
S315080012F0B3FA83F303F1845303F584139B004FF089
S3150800130002081A60FEF7D0FF474E074604E0FEF7CC
S31508001310CBFFC01B0228AED898FAA8F3326898FA11
S31508001320A8F3B3FA83F303F01F0305FA03F3134292
S31508001330EDD1236836E63C4A136843F480331360DC
S31508001340C7E5394A136A43F00103136256E693FA6E
S31508001350A3F3B3FA83F303F1845303F584139B00D1
S3150800136000221A60FEF7A0FF4FF000780746012614
S3150800137005E0FEF799FFC01B02283FF67CAF98FAF6
S31508001380A8F329492A6898FAA8F3B3FA83F303F06D
S315080013901F0306FA03F313424FF00100E9D14B6825
S315080013A0656A226A23F474132A4313434B604FF089
S315080013B0807393FAA3F3B3FA83F303F1845303F523
S315080013C084139B000C4618600546FEF76DFF4FF028
S315080013D00076074605E0FEF767FFC01B02283FF6C2
S315080013E04AAF96FAA6F3226896FAA6F3B3FA83F3F7
S315080013F003F01F0305FA03F31342ECD084E603F166
S315080014008043A3F53C331A6842F480221A601A68AE
S3150800141042F480321A605CE542F004021A621A6AE3
S3150800142042F001021A62E9E50010024030B587B0C1
S31508001430104C00234FF48072022503200295049075
S31508001440039305930192636943F400336361636907
S3150800145003F4003300930D464FF0904001A9009B1A
S31508001460FFF728FB636823F0E0631D43656007B058
S3150800147030BD00BF001002404FF4002393FAA3F3D7
S31508001480B3FA83F303F1845303F584139B00012213
S315080014901A6070474FF4002393FAA3F3B3FA83F361
S315080014A003F1845303F584139B0000221A607047E6
S315080014B0164A536803F00C01082924D110B44FF4D6
S315080014C0701191FAA1F103F47010B1FA81F120FAC2
S315080014D001F10F4CD06A625C0F2191FAA1F100F07C
S315080014E00F00B1FA81F120FA01F12144DB03087CEF
S315080014F054BF0848084B5DF8044B48BFB3FBF0F0EF
S3150800150000FB02F070470448704700BF0010024015
S315080015102C8D000800093D0000127A005E4A136807
S3150800152003F007038B422DE9F0410CD2136823F030
S3150800153007030B431360136803F00703994202D0AD
S315080015400120BDE8F08103689C0706D5534D8268E3
S315080015506C6824F0F00422436A600C46D9070646F4
S3150800156031D54368012B00F08480022B0CBF4FF065
S315080015700072022292FAA2F14849086892FAA2F287
S31508001580B2FA82F202F01F02012101FA02F20242C5
S31508001590D6D0424D6A6822F0030213436B60FEF709
S315080015A083FE7368012B074641F288384DD0022B1B
S315080015B005D155E0FEF778FEC01B404556D86B6846
S315080015C013F00C0FF6D1344A136803F007039C4254
S315080015D009D2136823F0070323431360136803F043
S315080015E007039C42ACD133685A0706D52B48F268E4
S315080015F0416821F4E0610A4342601B0707D5274A80
S315080016003169536823F4605343EAC1035360FFF713
S315080016104FFF224B0146F0225B6892FAA2F2B2FA19
S3150800162082F203F0F003D3401D481E4AC35C0F2024
S3150800163021FA03F3136002F0E1FF0020BDE8F08110
S31508001640FEF732FEC01B404510D86B6803F00C034A
S31508001650042BF5D1B7E7FEF727FEC01B404505D892
S315080016606B6803F00C03082BF5D1ACE70320BDE843
S31508001670F0814FF4003292FAA2F10849096892FA09
S31508001680A2F2B2FA82F202F01F0203FA02F20A4248
S315080016907FF47FAF54E700BF0020024000100240ED
S315080016A0508D000800000020014B1868704700BFE5
S315080016B000000020084B4FF4E0625B6892FAA2F241
S315080016C0B2FA82F203F4E063D3400449044ACB5CDD
S315080016D01068D840704700BF00100240608D0008AF
S315080016E000000020084B4FF460525B6892FAA2F2A1
S315080016F0B2FA82F203F46053D3400449044ACB5C3D
S315080017001068D840704700BF00100240608D00087E
S31508001710000000200F22254B02601A68510335D5B8
S315080017204FF4A0234360214A2049D36A03F00F03EC
S315080017308360136813F0010318BF01230361F822BD
S315080017400B6892FAA2F2B2FA82F203F0F803D340D7
S3150800175043610B6A5A0721D50523C360134B134A05
S315080017605B6A13F0010318BF012383610F4B1B68E3
S31508001770DB014CBF02230123C361536803F48033A2
S315080017800362536803F47013436270471B6813F4CB
S31508001790803318BF4FF480334360C4E70B6A13F0F5
S315080017A0010318BF0123C360D8E700BF0010024039
S315080017B00E4B0F2202605A6802F0030242605A6812
S315080017C002F0F00282605A6802F4E062C2605B6866
S315080017D0DB0810B403F4E063054C036123685DF885
S315080017E0044B03F007030B60704700BF001002406C
S315080017F000200240704700BF08B5054B9B681B06D2
S3150800180004D5FFF7F7FF034B80221A7008BD00BF07
S31508001810001002400A10024002684868936823F0E4
S315080018207003034330B423F480330C6823F00703B2
S3150800183023435028936036D024D960280ED07028C8
S315080018400AD1CB688C6890680D69234320F47F41E0
S315080018500B4343EA0523936030BC7047106A8C68D3
S315080018600D6920F0100010629169136A21F4704125
S3150800187023F0A00341EA053143EA0413916130BC21
S31508001880136270474028E7D1146A106A0D6920F080
S3150800189001011162936923F0F00343EA051393618A
S315080018A0146230BC7047136A106A8D680C6920F0A0
S315080018B001001062916923F00A0321F0F0012B431D
S315080018C041EA0411916130BC13627047704700BF4A
S315080018D0704700BF0223026810B580F83D30116AD0
S315080018E041F211130B40044643B9116A40F24443CE
S315080018F00B401BB9136823F0010313602046FFF75A
S31508001900E7FF002084F83D0084F83C0010BD00BFC6
S315080019100168022210B480F83D200A6801240346B3
S3150800192022430A60002083F83D405DF8044B704767
S315080019300223026880F83D30116A41F211130B4008
S3150800194043B9116A40F244430B401BB9136823F0AC
S3150800195001031360012380F83D300020704700BF63
S315080019600368DA6842F00102DA601A6842F0010296
S315080019701A600020704700BF0368DA6822F0010287
S31508001980DA60196A41F211120A4042B9196A40F23C
S3150800199044420A401AB91A6822F001021A60002065
S315080019A0704700BF70B590F83D40E4B2022C21D0D4
S315080019B090F83D40E4B2012C15D004461346006A5F
S315080019C022680D4E0D4D866205632C32FEF7DEFE4B
S315080019D02368DA6842F48072DA601A6842F0010213
S315080019E01A60002070BD19B1022380F83D30E4E783
S315080019F0002AF9D0204670BD492E00086930000833
S31508001A000368D96821F48071D960196A41F2111204
S31508001A100A4042B9196A40F244420A401AB91A6899
S31508001A2022F001021A60012380F83D300020704739
S31508001A30704700BF704700BF0223026810B580F8E0
S31508001A403D30116A41F211130B40044643B9116A3D
S31508001A5040F244430B401BB9136823F0010313609B
S31508001A602046FFF7E7FF002084F83D0084F83C0095
S31508001A7010BD00BF036801201A6A00FA01F110B40C
S31508001A8022EA01021B4C1A621A6A1A62A34220D081
S31508001A90194A93421DD002F54062934219D002F5C5
S31508001AA08062934215D002F58062934211D0196A7A
S31508001AB041F211120A4042B9196A40F244420A40F8
S31508001AC01AB91A6822F001021A6000205DF8044B60
S31508001AD07047196A41F211120A40002AE7D1196AB9
S31508001AE040F244420A40002AE1D15A6C22F40042EC
S31508001AF05A64DCE7002C014000340140704700BFFF
S31508001B00704700BF0223026810B580F83D30116A9D
S31508001B1041F211130B40044643B9116A40F244439B
S31508001B200B401BB9136823F0010313602046FFF727
S31508001B30E7FF002084F83D0084F83C0010BD00BF94
S31508001B4003680122186A02FA01F120EA010010B4BA
S31508001B5018621A6A104C1143A342196216D00F4A2A
S31508001B60934213D002F5406293420FD002F5806289
S31508001B7093420BD002F58062934207D01A685DF84B
S31508001B80044B42F0010200201A6070475A6C42F476
S31508001B9000425A64F2E700BF002C014000340140BD
S31508001BA0FFF7CEBF036830B41A6A1F4D012404FA42
S31508001BB001F122EA01021A621A6A1A62AB4222D0BB
S31508001BC01A4A93421FD002F5406293421BD002F58F
S31508001BD08062934217D002F58062934213D0196A45
S31508001BE041F211120A4042B9196A40F244420A40C7
S31508001BF01AB91A6822F001021A60012380F83D30EA
S31508001C0030BC00207047196A41F211120A40002AB6
S31508001C10E5D1196A40F244420A40002ADFD15A6CDB
S31508001C2022F400425A64DAE7002C014000340140ED
S31508001C3010B40C2944D8DFE801F0374343433D4349
S31508001C4043433143434307000368DA6842F010020E
S31508001C50DA60186A1E4C012202FA01F120EA010232
S31508001C601A621A6AA34241EA020119622AD0194A7B
S31508001C70934227D002F54062934223D002F5806250
S31508001C8093421FD002F5806293421BD01A685DF812
S31508001C90044B42F0010200201A6070470368DA68B4
S31508001CA042F00802DA60D4E70368DA6842F0020212
S31508001CB0DA60CEE70368DA6842F00402DA60C8E759
S31508001CC00368C6E75A6C42F400425A64DEE700BF6E
S31508001CD0002C014000340140FFF7AABF10B40C29BC
S31508001CE04CD8DFE801F0454B4B4B3F4B4B4B394B40
S31508001CF04B4B07000368DA6822F01002DA601A6AAA
S31508001D00284C012000FA01F122EA010119621A6A37
S31508001D101A62A34234D0244A934231D002F5406273
S31508001D2093422DD002F58062934229D002F5806253
S31508001D30934225D0196A41F211120A4042B9196A2A
S31508001D4040F244420A401AB91A6822F001021A609F
S31508001D5000205DF8044B70470368DA6822F0080231
S31508001D60DA60CCE70368DA6822F00402DA60C6E7CC
S31508001D700368DA6822F00202DA60C0E70368BEE7A1
S31508001D80196A41F211120A40002AD3D1196A40F29F
S31508001D9044420A40002ACDD15A6C22F400425A64C1
S31508001DA0C8E700BF002C014000340140FFF796BF8A
S31508001DB0F8B590F83D40E4B2022C15D090F83D40B5
S31508001DC0E4B2012C0CD00D4604460C2D74D8DFE87D
S31508001DD005F00D73737351737373407373736200F5
S31508001DE0002A6BD1002B69D02046F8BD2668406AC8
S31508001DF03749384F81620763114606F13402FEF708
S31508001E00C5FC2368DA6842F40072DA60186A324C54
S31508001E10012202FA05F120EA01021A621A6AA342AD
S31508001E2041EA020119624DD02C4A93424AD002F582
S31508001E304062934246D002F58062934242D002F550
S31508001E40806293423ED01A6842F001021A6000206E
S31508001E50F8BD2668C06A1E491E4F8162076311468F
S31508001E6006F13C02FEF792FC2368DA6842F4006247
S31508001E70DA60CBE72668806A1549164F81620763E0
S31508001E80114606F13802FEF781FC2368DA6842F447
S31508001E908062DA60BAE72668006B0D490D4F8162E9
S31508001EA00763114606F14002FEF770FC2368DA68FC
S31508001EB042F48052DA60A9E70368A7E7022480F8AB
S31508001EC03D4080E75A6C42F400425A64BBE700BFC3
S31508001ED0B12E000869300008002C0140003401408A
S31508001EE0FFF766BF30B40C294ED8DFE801F0474D3E
S31508001EF04D4D414D4D4D3B4D4D4D07000368DA683C
S31508001F0022F48052DA601A6A294D012404FA01F192
S31508001F1022EA010119621A6A1A62AB4236D0254AC8
S31508001F20934233D002F5406293422FD002F5806285
S31508001F3093422BD002F58062934227D0196A41F268
S31508001F4011120A4042B9196A40F244420A401AB9C3
S31508001F501A6822F001021A60012380F83D3030BC6D
S31508001F60002070470368DA6822F40062DA60CAE77C
S31508001F700368DA6822F48062DA60C4E70368DA681C
S31508001F8022F40072DA60BEE70368BCE7196A41F218
S31508001F9011120A40002AD1D1196A40F244420A4075
S31508001FA0002ACBD15A6C22F400425A64C6E700BF15
S31508001FB0002C014000340140FFF794BF704700BF72
S31508001FC0704700BF0223026810B580F83D30116AD9
S31508001FD041F211130B40044643B9116A40F24443D7
S31508001FE00B401BB9136823F0010313602046FFF763
S31508001FF0E7FF002084F83D0084F83C0010BD00BFD0
S3150800200003680122186A02FA01F120EA010018623F
S315080020101A6A114319621A6842F001021A6000200E
S31508002020704700BF036801201A6A00FA01F122EA24
S3150800203001021A621A6A1A62196A41F211120A40F0
S3150800204042B9196A40F244420A401AB91A6822F09B
S3150800205001021A60002070470C292FD8DFE801F02A
S31508002060282E2E2E222E2E2E1C2E2E2E07000368EC
S31508002070DA6842F01002DA60186A012202FA01F1FF
S3150800208020EA01021A621A6A114319621A6842F0B2
S3150800209001021A60002070470368DA6842F00802F5
S315080020A0DA60E9E70368DA6842F00402DA60E3E72F
S315080020B00368DA6842F00202DA60DDE70368DBE704
S315080020C00C2938D8DFE801F0313737372B3737375F
S315080020D02537373707000368DA6822F01002DA6016
S315080020E01A6A012000FA01F122EA010119621A6A44
S315080020F01A62196A41F211120A4042B9196A40F283
S3150800210044420A401AB91A6822F001021A600020ED
S3150800211070470368DA6822F00802DA60E0E70368C5
S31508002120DA6822F00402DA60DAE70368DA6822F08D
S315080021300202DA60D4E70368D2E700BFF8B590F880
S315080021403D40E4B2022C12D090F83D40E4B2012C96
S315080021500FD00D4604460C2D5CD8DFE805F0105B61
S315080021605B5B2E5B5B5B3D5B5B5B4C001BB12046A0
S31508002170F8BD002AFAD0022480F83D40E9E7216834
S31508002180406A254F254E876206633431FEF7FEFA0C
S315080021902068C36843F40073C360026A012303FA24
S315080021A005F122EA01030362036A1943016203681F
S315080021B043F0010303600020F8BD2168806A164FCA
S315080021C0164E876206633831FEF7E0FA2068C36860
S315080021D043F48063C360E0E72168C06A0E4F0F4E80
S315080021E0876206633C31FEF7D1FA2068C36843F478
S315080021F00063C360D1E72168006B074F074E87620B
S3150800220006634031FEF7C2FA2068C36843F4805378
S31508002210C360C2E70068C0E7612E0008693000089D
S3150800222010B40C293DD8DFE801F0363C3C3C303C84
S315080022303C3C2A3C3C3C07000368DA6822F480529E
S31508002240DA601A6A012404FA01F122EA0101196224
S315080022501A6A1A62196A41F211120A4042B9196ACF
S3150800226040F244420A401AB91A6822F001021A607A
S31508002270012380F83D305DF8044B00207047036861
S31508002280DA6822F40062DA60DBE70368DA6822F4C7
S315080022908062DA60D5E70368DA6822F40072DA60E9
S315080022A0CFE70368CDE700BF704700BF704700BFA0
S315080022B00223026810B580F83D30116A41F2111305
S315080022C00B40044643B9116A40F244430B401BB91C
S315080022D0136823F0010313602046FFF7E7FF002089
S315080022E084F83D0084F83C0010BD00BF036815491A
S315080022F01A6A22F001021A621A6A42F001021A6286
S315080023001A6A22F010021A621A6A8B4242F0100206
S315080023101A6210D00C4A93420DD002F540629342DD
S3150800232009D002F58062934205D002F58062934295
S3150800233001D0002070475A6C42F400425A640020CB
S31508002340704700BF002C01400034014003681F4954
S315080023501A6A22F001021A621A6A1A621A6A22F0C4
S3150800236010021A621A6A1A628B421ED0184A9342DF
S315080023701BD002F54062934217D002F58062934261
S3150800238013D002F5806293420FD0196A41F21112F6
S315080023900A4042B9196A40F244420A401AB91A6810
S315080023A022F001021A6000207047196A41F21112E0
S315080023B00A40002AE9D1196A40F244420A40002A32
S315080023C0E3D15A6C22F400425A64DEE7002C01403D
S315080023D00034014003681949DA6842F00202DA60FB
S315080023E0DA6842F00402DA601A6A22F001021A6216
S315080023F01A6A42F001021A621A6A22F010021A6276
S315080024001A6A8B4242F010021A6210D00C4A9342A2
S315080024100DD002F54062934209D002F580629342DC
S3150800242005D002F58062934201D0002070475A6CAD
S3150800243042F400425A640020704700BF002C014055
S315080024400034014003682349DA6822F00202DA60A0
S31508002450DA6822F00402DA601A6A22F001021A62C5
S315080024601A6A1A621A6A22F010021A621A6A1A623A
S315080024708B421ED0184A93421BD002F54062934203
S3150800248017D002F58062934213D002F58062934218
S315080024900FD0196A41F211120A4042B9196A40F27C
S315080024A044420A401AB91A6822F001021A6000204A
S315080024B07047196A41F211120A40002AE9D1196ACD
S315080024C040F244420A40002AE3D15A6C22F4004200
S315080024D05A64DEE7002C014000340140704700BF13
S315080024E0704700BF0223026810B580F83D30116AB4
S315080024F041F211130B40044643B9116A40F24443B2
S315080025000B401BB9136823F0010313602046FFF73D
S31508002510E7FF002084F83D0084F83C0010BD00BFAA
S31508002520D1B1042916D003681A6A22F001021A6288
S315080025301A6A42F001021A621A6A22F010021A6234
S315080025401A6A42F010021A621A6842F001021A6008
S31508002550002070470368EFE703681A6A22F0010251
S315080025601A621A6A42F001021A62EDE701B30429F7
S315080025701CD003681A6A22F001021A621A6A1A62E1
S315080025801A6A22F010021A621A6A1A62196A41F263
S3150800259011120A4042B9196A40F244420A401AB96D
S315080025A01A6822F001021A60002070470368E7E7FC
S315080025B003681A6A22F001021A621A6A1A62E5E7C1
S315080025C000292ED004291ED003681A6A22F00102B7
S315080025D01A621A6A42F001021A621A6A22F0100294
S315080025E01A621A6A42F010021A62DA6842F00202A5
S315080025F0DA60DA6842F00402DA601A6842F0010228
S315080026001A600020704703681A6A22F010021A62DC
S315080026101A6A42F010021A62DA6842F00402DA60B4
S31508002620EBE703681A6A22F001021A621A6A42F094
S3150800263001021A62DA6842F00202DA60DDE700BFD8
S3150800264003681A6AD9B922F001021A621A6A1A626A
S31508002650DA6822F00202DA60196A41F211120A40B7
S3150800266042B9196A40F244420A401AB91A6822F075
S3150800267001021A60012380F83D30002070470429C2
S3150800268013D022F001021A621A6A1A621A6A22F032
S3150800269010021A621A6A1A62DA6822F00202DA600C
S315080026A0DA6822F00402DA60D6E722F010021A622B
S315080026B01A6A1A62DA6822F00402DA60CCE700BF06
S315080026C02DE9F04190F83D40BDF81860E4B2022CBF
S315080026D00FD090F83D40012C0ED004291F460C4619
S315080026E0054615D03C2950D0002930D00020BDE839
S315080026F0F0812046BDE8F081002A7CD0002B7AD0F4
S315080027000224042980F83D401F460C460546E9D1B7
S315080027102968806A3A4B3B4C83623A4633460463DF
S315080027203831FEF733F82B68DA6842F48062DA60EB
S315080027301A6842F001021A601A6A22F010021A6236
S315080027401A6A42F010021A620020BDE8F081296870
S31508002750406A2B4B2B4F8362076333463431FEF7AF
S3150800276015F82B68DA6842F40072DA601A6842F0E3
S3150800277001021A601A6A22F001021A621A6A42F003
S31508002780010220461A62BDE8F0812968406ADFF82E
S3150800279070801C4CC0F82880334604633431FDF73A
S315080027A0F5FF2968A86A33463A46C0F828800463C4
S315080027B03831FDF7EBFF2B681A6842F001021A6000
S315080027C01A6A22F001021A621A6A42F001021A62B1
S315080027D01A6A22F010021A621A6A42F010021A6283
S315080027E0DA6842F40072DA60DA6842F48062DA6023
S315080027F00020BDE8F081002E82D00120BDE8F081DE
S31508002800612E00086930000803681A6AD9B922F0EF
S3150800281001021A621A6A1A62DA6822F40072DA6027
S31508002820196A41F211120A4042B9196A40F2444241
S315080028300A401AB91A6822F001021A60012380F8C0
S315080028403D3000207047042913D022F001021A6295
S315080028501A6A1A621A6A22F010021A621A6A1A6246
S31508002860DA6822F40072DA60DA6822F48062DA60E2
S31508002870D6E722F010021A621A6A1A62DA6822F495
S315080028808062DA60CCE700BFF8B590F83D40069D57
S31508002890E4B2022C19D090F83D40E4B2012C2AD0BB
S315080028A0B2F5006F16460F4604462FD00FD8B2F57C
S315080028B0007F40D0B2F5806F41D0B2F5807F0FD14E
S315080028C0006A2268244924E0BDB12046F8BDB2F565
S315080028D0005F2CD0B2F5804F39D0B2F5805F32D088
S315080028E023683D439D64DA6801211643DE600020B3
S315080028F084F83D10F8BD002BE6D00224B2F5006F2F
S3150800290080F83D4016460F460446CFD1C06A226875
S315080029101249DFF854C081624FEA152E1946C0F8ED
S3150800292030C04C320EF10103FDF730FFD8E7406B9B
S3150800293022680B49EDE7406A22680849E9E7806A98
S3150800294022680649E5E7006B22680449E1E7806BDF
S3150800295022680449DDE700BF492E0008B12E0008A9
S31508002960E14500085530000869300008F8B590F8C8
S315080029703D40069DE4B2022C19D090F83D40E4B2E1
S31508002980012C2AD0B2F5006F16460F4604462FD002
S315080029900FD8B2F5007F40D0B2F5806F41D0B2F5BE
S315080029A0807F0FD1006A2168244A24E0BDB1204601
S315080029B0F8BDB2F5005F2CD0B2F5804F39D0B2F52C
S315080029C0805F32D023683D439D64DA68012116434F
S315080029D0DE60002084F83D10F8BD002BE6D0022406
S315080029E0B2F5006F80F83D4016460F460446CFD133
S315080029F0C06A2168124ADFF854C082624FEA152E6F
S31508002A001A46C0F830C04C310EF10103FDF7BEFE80
S31508002A10D8E7406B21680B4AEDE7406A2168084A07
S31508002A20E9E7806A2168064AE5E7006B2168044AF7
S31508002A30E1E7806B2168044ADDE700BF492E0008FC
S31508002A40612E0008E1450008553000086930000885
S31508002A50B1F5006F38B50C46054630D012D9B1F538
S31508002A60005F24D0B1F5804F1DD0B1F5805F02D14B
S31508002A70006BFDF7CDFE2B68D96821EA0404DC60FB
S31508002A80002038BDB1F5007F15D0B1F5806F06D0AE
S31508002A90B1F5807FEFD1006AFDF7BAFEEBE7806AF1
S31508002AA0FDF7B6FEE7E7806BFDF7B2FEE3E7406B9E
S31508002AB0FDF7AEFEDFE7406AFDF7AAFEDBE7C06A70
S31508002AC0FDF7A6FED7E700BFFFF7C2BF90F83C2088
S31508002AD0012A0FD030B403460568012402200022DB
S31508002AE083F83D006961104683F83D4083F83C2031
S31508002AF030BC70470220704790F83C30012B25D037
S31508002B004B68F0B401250224AB4280F83C5080F8AB
S31508002B103D401DD00C2A10D8DFE802F0270F0F0F12
S31508002B202F0F0F0F070F0F0F37000B680268002BC8
S31508002B3042D0D36943F08003D3610023012280F891
S31508002B403D2080F83C30F0BC18467047022070479C
S31508002B500768CB68BC688D680E6924F47F442B43EC
S31508002B60234343EA0623BB60D4E70B680268A3B194
S31508002B70936943F080039361DFE70B680268B3B19A
S31508002B80936943F400439361D7E70B6802684BB136
S31508002B90D36943F40043D361CFE7936923F08003F5
S31508002BA09361CAE7D36923F40043D361C5E7936900
S31508002BB023F400439361C0E7D36923F08003D3610C
S31508002BC0BBE700BF90F83C30012B40D002220368D7
S31508002BD070B480F83D209D680C685D4A402C02EA76
S31508002BE005024FF0010580F83C509A6079D018D953
S31508002BF0702C62D02DD9B4F5805F57D0B4F5005F3C
S31508002C001CD19C688A684D68CE682A4324F47F41A3
S31508002C100A4342EA06229A609A6842F480429A6017
S31508002C200CE0102C32D038D9202C72D0302C05D19B
S31508002C309A6822F0700242F037029A600023012255
S31508002C4080F83D2080F83C3070BC1846704702205A
S31508002C507047502C64D0602CF0D11C6A4D68CE6841
S31508002C6024F010041C6299691A6A21F4704122F052
S31508002C70A00242EA051241EA063199611A629A6887
S31508002C8022F0700242F067029A60D7E79A6822F04B
S31508002C90700242F017029A60D0E7002CCED19A68EB
S31508002CA022F0700242F007029A60C7E79A6822F497
S31508002CB0803222F007029A60C0E79C688A684D68ED
S31508002CC0CE682A4324F47F410A4342EA06229A60E0
S31508002CD09A6822F4803222F0770242F077029A60EC
S31508002CE0ACE71A6A1C6A4E68CD6824F001041C62B7
S31508002CF0996922F00A0221F0F001324341EA0511EE
S31508002D0099611A629A6822F0700242F047029A6044
S31508002D1094E79A6822F0700242F027029A608DE7DB
S31508002D201A6A1C6A4E68CD6824F001041C62996907
S31508002D3022F00A0221F0F001324341EA05119961B5
S31508002D401A629A6822F0700242F057029A6075E792
S31508002D508800FEFF0268536823F080031943516018
S31508002D600020704790F83C20012A01D102207047C4
S31508002D7038B504460125022380F83C5080F83D30DA
S31508002D80FEF74AFD2368DA6822F04002DA60DA685C
S31508002D90002122F48042DA60084684F83D5084F81F
S31508002DA03C1038BD90F83C20012A01D1022070471A
S31508002DB038B504460125022380F83C5080F83D309A
S31508002DC0FEF72AFD2368DA6842F04002DA60DA681C
S31508002DD0002122F48042DA60084684F83D5084F8DF
S31508002DE03C1038BD90F83C30012B02460AD00C291D
S31508002DF026D8DFE801F010252525172525251E25C7
S31508002E00252509000220704703681B6C0021184617
S31508002E1082F83C10704703685B6B0021184682F8FD
S31508002E203C10704703689B6B0021184682F83C10DB
S31508002E3070470368DB6B0021184682F83C10704720
S31508002E400023E3E7704700BF08B5406A012380F80E
S31508002E503D3001F02BFC08BD704700BF704700BF2E
S31508002E6010B5446A626A0123904284F83D300FD057
S31508002E70A36A984213D0E36A984213D0236B984208
S31508002E8005D02046FFF7EAFF0023237710BD082365
S31508002E9023772046FFF7E2FF0023237710BD02239E
S31508002EA02377EEE704232377EBE700BF704700BFDD
S31508002EB010B5446A626A0123904284F83D300FD007
S31508002EC0A36A984213D0E36A984213D0236B9842B8
S31508002ED005D02046FFF7EAFF0023237710BD082315
S31508002EE023772046FFF7E2FF0023237710BD02234E
S31508002EF02377EEE704232377EBE700BF704700BF8D
S31508002F0003681A69910710B5044602D5DA6892076C
S31508002F1062D41A69500702D5DA68510749D41A6982
S31508002F20120702D5DA68100731D41A69D20602D513
S31508002F30DA68D00618D41A69D10702D5DA68D20732
S31508002F406BD41A69100602D5DA6811066DD41A69A7
S31508002F50520602D5DA68500657D41A69910602D580
S31508002F60DA68920649D410BD6FF010021A61DB695F
S31508002F70082213F4407F2277204661D1FFF76CFFC1
S31508002F802046FFF793FF002223682277D3E76FF0E6
S31508002F9008021A61DB69042299072277204655D16F
S31508002FA0FFF75AFF2046FFF781FF002223682277A2
S31508002FB0BBE76FF004021A619B69022213F4407F93
S31508002FC0227720463FD1FFF747FF2046FFF76EFFDF
S31508002FD0002223682277A2E76FF002021A619B6932
S31508002FE001229B07027728D1FFF736FF2046FFF715
S31508002FF05DFF0022236822778BE76FF020022046C8
S315080030001A61BDE8104001F0E9BA6FF040021A6192
S315080030102046FFF773FF23689FE76FF001021A61E6
S31508003020204601F043FB23688BE76FF080021A61A4
S31508003030204601F0DDFA236889E7FFF70FFFD8E796
S31508003040FFF70CFF9FE7FFF709FFC1E7FFF706FF4A
S31508003050ABE700BF08B5406A012380F83D30FFF7AB
S315080030604DFF08BD704700BF08B5406A012380F8C8
S315080030703D30FFF7F7FF08BD90F83D00704700BFE9
S3150800308090F83D00704700BF90F83D00704700BFBC
S3150800309090F83D00704700BF90F83D00704700BFAC
S315080030A090F83D00704700BF324A03689042F0B47A
S315080030B04CD0B0F1804F24D0A2F59432904220D063
S315080030C002F5806290421CD002F59632904218D0E2
S315080030D002F54062904218D002F58062904214D000
S315080030E002F58062904210D04A698C68096823F01C
S315080030F0800313430360C462816201234361F0BC09
S3150800310070474A6823F070031343CA684C691A4D1E
S315080031108F680E6823F440731A4322F08002224314
S31508003120A8420260C76286620AD0144B984207D04A
S3150800313003F58063984203D003F580639842DCD197
S315080031400B69036301234361F0BC70474C68CA6886
S315080031504D6923F070031C4324F44074224322F083
S3150800316080022A4302608B68C3620B6883620B691C
S315080031700363E7E7002C01400034014000400140AA
S31508003180B8B190F83D3010B503F0FF0204465BB1C4
S31508003190022384F83D302068211DFFF785FF0123AF
S315080031A084F83D30002010BD80F83C2002F056FE21
S315080031B0EEE70120704700BFB8B190F83D3010B572
S315080031C003F0FF0204465BB1022384F83D30206811
S315080031D0211DFFF769FF012384F83D30002010BD4B
S315080031E080F83C20FEF724FCEEE70120704700BF7C
S315080031F0B8B190F83D3010B503F0FF0204465BB154
S31508003200022384F83D302068211DFFF74DFF012376
S3150800321084F83D30002010BD80F83C2002F0F2FD15
S31508003220EEE70120704700BFB8B190F83D3010B501
S3150800323003F0FF0204465BB1022384F83D302068A0
S31508003240211DFFF731FF012384F83D30002010BD12
S3150800325080F83C20FEF7B2FEEEE70120704700BF7B
S3150800326000B338B590F83D3004460D4603F0FF022A
S315080032709BB1022384F83D30211D2068FFF714FF17
S3150800328023681A6822F008021A601968012229437D
S315080032901960002084F83D2038BD80F83C20FFF7EF
S315080032A003F8E6E701207047002850D02DE9F041E1
S315080032B090F83D3082B005460C4603F0FF02002B1D
S315080032C040D02946022351F8040B85F83D3083681F
S315080032D023F4803323F007038360FFF7E5FE2E68A7
S315080032E0A769D6F808C0B169326A206821F4407324
S315080032F0E169019123F00303A16843EA07232769DB
S315080033000B4301993F0147EA0121E76822F0AA0821
S31508003310226A0F4347EA02376269616823F47C43ED
S315080033204CEA000048EA021223F0FC03B0600A43A4
S315080033303B4301210020B361326285F83D1002B09B
S31508003340BDE8F08180F83C20FFF7C8F8B9E701200E
S31508003350704700BFF0B5046A8F680E681B4D24F0ED
S3150800336001040462036AD0F804E0826922F4803218
S3150800337023F0020322F07302A84243EA070342EA53
S31508003380060215D0124CA04212D004F54064A042A1
S315080033900ED004F58064A0420AD004F58064A042E9
S315080033A006D04968C0F804E0826141630362F0BD53
S315080033B0CC684D6923F0080323438C692EF4407EBC
S315080033C02C4323F0040344EA0E0EEAE7002C0140DE
S315080033D000340140F0B5046AD1F808E00F681C4EC5
S315080033E024F010040462046A4568826922F0807336
S315080033F023F4E64324F02002B04242EA0E1243EADE
S31508003400072314D0134CA04211D004F54064A042FF
S3150800341014D004F58064A04210D004F58064A0425C
S315080034200CD049684560836181630262F0BDCC684F
S3150800343022F0800242EA041222F040024E698C69A8
S3150800344025F4406545EA860545EA8405E9E700BFAF
S31508003450002C014000340140F0B4046A8F680E68FD
S315080034601C4D24F480740462036A4468C26922F419
S31508003470803223F4007322F07302A84243EA07233A
S3150800348042EA060216D005F50065A84212D005F5EF
S315080034904065A84215D005F58065A84211D005F506
S315080034A08065A8420DD049684460C261F0BCC1631A
S315080034B003627047CD6823F4006343EA052323F4C7
S315080034C080634E698D6924F4405444EA061444EA3C
S315080034D00514E8E7002C0140F0B5046AD1F808E0C5
S315080034E00F68174E24F480540462046A4568C2695A
S315080034F022F0807323F4E64324F40052B04242EAF1
S315080035000E3243EA072314D00E4CA04211D004F51C
S315080035104064A0420DD004F58064A04209D004F5A9
S315080035208064A04205D049684560C36101640262AF
S31508003530F0BD4C6925F4804545EA8415F3E700BFDC
S31508003540002C01400034014090F83C30012B1CD07F
S3150800355010B504460223012084F83C0084F83D3067
S315080035600C2A0BD8DFE802F0170A0A0A070A0A0A21
S315080035701B0A0A0A13002068FFF72CFF0123002004
S3150800358084F83D3084F83C0010BD0220704720685E
S31508003590FFF7A2FFF2E72068FFF7DCFEEEE72068F8
S315080035A0FFF75AFFEAE700BF38B590F83C30012B21
S315080035B02BD00D4602230121044680F83C1080F8E2
S315080035C03D300C2A1AD8DFE802F0351919190719FF
S315080035D0191947191919220029460068FFF7FAFE32
S315080035E023682869996941F400619961996921F408
S315080035F0806199619A6942EA00229A610123002052
S3150800360084F83D3084F83C0038BD022038BD294690
S315080036100068FFF761FF23682869D96941F40061EA
S31508003620D961D96921F48061D961DA6942EA00224F
S31508003630DA61E3E729460068FFF78CFE23682A6902
S31508003640996941F008019961996921F00401996124
S3150800365099690A439A61D1E729460068FFF7FCFE93
S3150800366023682A69D96941F00801D961D96921F025
S315080036700401D961D9690A43DA61BFE770B4046AFB
S31508003680174E24F001040462B0428569046A15D015
S31508003690B0F1804F12D0A6F59436B0420ED006F59A
S315080036A08066B0420AD006F59636B04206D006F5D0
S315080036B04066B04202D045F0010202E025F003055B
S315080036C02A431B01DBB222F0F00224F00A0401F0BF
S315080036D00A010C431A438261046270BC704700BF3A
S315080036E0002C0140F8B590F83C30012B39D00D4636
S315080036F002230121044680F83C1080F83D30002A58
S3150800370031D0042A3FD0082A63D00168EB680A6AD8
S315080037102E68D5F804E0AF6822F480520A62CA69B6
S31508003720086A22F4407235031E0342EA0E2305F4A2
S315080037302045B6B223F4704320F4204233432A438B
S31508003740CB610A62CB6923F44063CB61CB6943EA58
S315080037500727CF610123002084F83D3084F83C0018
S31508003760F8BD0220F8BD95E80600EB680068FFF78B
S3150800377085FF2368AA68996921F00C0199619969FE
S315080037800A439A61E6E70368EA68196A2E68D5F873
S3150800379004E0AF6821F0100119629969186A21F4EA
S315080037A040713501160341EA0E2205F0A005B6B2AE
S315080037B022F4704220F0A001324329439A6119622B
S315080037C09A6922F440629A619A6942EA07279F61D8
S315080037D0C0E70368EA68196A2E68D5F804E0AF6896
S315080037E021F480711962D969186A21F0030135023A
S315080037F016014EEA010205F42065F6B222F0F0023F
S3150800380020F4206132432943DA611962DA6922F029
S315080038100C02DA61DA691743DF619BE79A4200F026
S315080038208880F0B590F83C50012D89B054D00C46EC
S315080038301E460AC905460127022085F83C700191F3
S31508003840A768216985F83D000293E06863690397D4
S31508003850049006910793002A6DD0042A3FD0002EC3
S3150800386043D0042E30D12968A6690A6AE369276A13
S3150800387022F010020A628A69086A22F44072340148
S3150800388042EA03233E0304F0A004B6B223F47043CD
S3150800389020F0A002334322438B610A628B6923F42A
S315080038A040638B618B6823F070038B608B6843F0F1
S315080038B060038B608B6823F4803323F007038B60E7
S315080038C08B6843F006038B600123002085F83D30A2
S315080038D085F83C0009B0F0BD022009B0F0BD01A989
S315080038E02868FFF777FD002EBBD104F118010EC931
S315080038F02868FFF7C3FE2B689A6922F00C029A61C2
S315080039009A6822F070029A609A6842F050029A60A9
S315080039109A6822F4803222F007029A609A6842F086
S3150800392006029A600020012385F83D3085F83C00A0
S31508003930D0E70120704701A92868FFF70BFD8EE73D
S3150800394010B4846824F47F4421430A4342EA0323DB
S3150800395083605DF8044B704710B40123046A8B40FA
S3150800396024EA03030362036A5DF8044B8A4042EAC9
S3150800397003010162704700BF026A22F48032F0B484
S315080039808F680C680262036A4568426D144E22F419
S31508003990803223F4003322F07002B04243EA074330
S315080039A042EA040215D00F4CA04212D004F5406436
S315080039B0A0420ED004F58064A0420AD004F58064C3
S315080039C0A04206D0496845604265F0BC816503623D
S315080039D070474C6925F4803545EA0425F2E700BFAF
S315080039E0002C014000340140F0B5046AD1F808E023
S315080039F00F68174E24F480140462046A4568426D01
S31508003A0022F0807323F4E04324F40012B04242EA21
S31508003A100E5243EA072314D00E4CA04211D004F5E7
S31508003A204064A0420DD004F58064A04209D004F594
S31508003A308064A04205D0496845604365C165026255
S31508003A40F0BD4C6925F4802545EA8425F3E700BFD7
S31508003A50002C014000340140704700BF002856D0B2
S31508003A6030B590F83D3089B004460D4603F0FF02A4
S31508003A70002B47D0022384F83D30211D2068FFF72C
S31508003A8013FBAB68296820680322FFF7F7FD206857
S31508003A90E96882696B6822F00C02826182691343C5
S31508003AA08361436843F0800343608368029123F08F
S31508003AB070038360836843F040038360836823F45C
S31508003AC0803323F007038360836843F0040383602D
S31508003AD00025702301A90193059506950795049578
S31508003AE00395FFF777FC23685A6822F070025A603C
S31508003AF05A68012142F0500228465A6084F83D105F
S31508003B0009B030BD80F83C20FFF7A6FFB2E70120D8
S31508003B10704700BF704700BF0223026810B580F8DF
S31508003B203D30116A41F211130B40044643B9116A3C
S31508003B3040F244430B401BB9136823F0010313609A
S31508003B402046FFF7E7FF002084F83D0084F83C0094
S31508003B5010BD00BF10B50446012200680021FFF71A
S31508003B60FBFE2268136843F001031360002010BDB2
S31508003B70002210B5044611460068FFF7EDFE2268DC
S31508003B80116A41F211130B4043B9116A40F24443DA
S31508003B900B401BB9136823F001031360002010BD06
S31508003BA010B504460068C36843F00203C3600122E7
S31508003BB00021FFF7D1FE2268136843F00103136062
S31508003BC0002010BD002210B5044611460068FFF714
S31508003BD0C3FE2368DA6822F00202DA60196A41F243
S31508003BE011120A4042B9196A40F244420A401AB907
S31508003BF01A6822F001021A60002010BDF8B590F884
S31508003C003D40E4B2022C28D090F83D40E4B2012CA5
S31508003C101DD0044616460D46012200210068104FA5
S31508003C20FFF79AFE2168606A0E4B83622A4633467E
S31508003C3007633431FCF7AAFD2368DA6842F4007298
S31508003C40DA601A6842F001021A600020F8BD01B96C
S31508003C501AB9022380F83D30DBE72046F8BD00BFDD
S31508003C6069300008612E0008002210B50446114686
S31508003C700068FFF771FE2368DA6822F40072DA60DA
S31508003C80196A41F211120A4042B9196A40F24442CD
S31508003C900A401AB91A6822F001021A60002010BDFB
S31508003CA003680422186A02FA01F120EA0100186280
S31508003CB01A6A114319625A6C42F400425A641A6825
S31508003CC042F001021A600020704700BFFFF7E8BF04
S31508003CD00C2937D8DFE801F0303636362A3636363C
S31508003CE02436363607000368DA6842F01002DA60CE
S31508003CF0DA6842F08002DA60186A042202FA01F1F0
S31508003D0020EA01021A621A6A114319625A6C42F4CD
S31508003D1000425A641A6842F001021A60002070478D
S31508003D200368DA6842F00802DA60E1E70368DA68ED
S31508003D3042F00402DA60DBE70368DA6842F002025E
S31508003D40DA60D5E70368D3E7FFF7C2BF0C294FD877
S31508003D50DFE801F0484E4E4E424E4E4E3C4E4E4E19
S31508003D6007000368DA6822F01002DA601A6A04208B
S31508003D7000FA01F122EA010119621A6A1A62196A3D
S31508003D8040F244420A401AB9DA6822F08002DA6040
S31508003D90196A41F211120A4042B9196A40F24442BC
S31508003DA00A401AB95A6C22F400425A64196A41F256
S31508003DB011120A4042B9196A40F244420A401AB935
S31508003DC01A6822F001021A60002070470368DA6850
S31508003DD022F00802DA60C9E70368DA6822F004020A
S31508003DE0DA60C3E70368DA6822F00202DA60BDE740
S31508003DF00368BBE7FFF7AABFF8B590F83D40E4B201
S31508003E00022C15D090F83D40E4B2012C0CD00D469A
S31508003E1004460C2D65D8DFE805F00D646464536428
S31508003E206464316464644200002A5CD1002B5AD071
S31508003E302046F8BD2668406A2D492E4F81620763E1
S31508003E40114606F13402FCF7A1FC2368DA6842F44D
S31508003E500072DA60186A042202FA05F120EA010201
S31508003E601A621A6A114319625A6C42F400425A6479
S31508003E701A6842F001021A600020F8BD2668C06A76
S31508003E801B491C4F81620763114606F13C02FCF789
S31508003E907DFC2368DA6842F40062DA60DAE72668AD
S31508003EA0006B1349134F81620763114606F14002FE
S31508003EB0FCF76CFC2368DA6842F48052DA60C9E7DA
S31508003EC02668806A0A490B4F81620763114606F124
S31508003ED03802FCF75BFC2368DA6842F48062DA6031
S31508003EE0B8E70368B6E7022480F83D408FE700BFCD
S31508003EF0B12E000869300008FFF77EBF10B40C2900
S31508003F004BD8DFE801F0444A4A4A3E4A4A4A384A08
S31508003F104A4A07000368DA6822F48052DA601A6AA5
S31508003F20042404FA01F122EA010119621A6A1A62E2
S31508003F30196A41F211120A4042B9196A40F244421A
S31508003F400A401AB95A6C22F400425A64196A41F2B4
S31508003F5011120A4042B9196A40F244420A401AB993
S31508003F601A6822F001021A60012380F83D305DF8D4
S31508003F70044B002070470368DA6822F40062DA60AE
S31508003F80CDE70368DA6822F48062DA60C7E7036877
S31508003F90DA6822F40072DA60C1E70368BFE700BF97
S31508003FA0FFF7ACBF03680422186A02FA01F120EA97
S31508003FB0010018621A6A114319625A6C42F40042E7
S31508003FC05A640020704700BF036804201A6A00FA82
S31508003FD001F122EA01021A621A6A1A62196A41F2A0
S31508003FE011120A4022B9196A40F244420A407AB1CB
S31508003FF0196A41F211120A4042B9196A40F244425A
S315080040000A401AB91A6822F001021A60002070479D
S315080040105A6C22F400425A64EAE700BFFFF7D4BF9D
S31508004020FFF7D2BF0368DA6842F00202DA60DA689C
S3150800403042F00402DA60186A042202FA01F120EA60
S31508004040010018621A6A114319625A6C42F4004256
S315080040505A640020704700BF0368DA6822F002023B
S31508004060DA60DA6822F00402DA601A6A042000FAD2
S3150800407001F122EA01021A621A6A1A62196A41F2FF
S3150800408011120A4022B9196A40F244420A407AB12A
S31508004090196A41F211120A4042B9196A40F24442B9
S315080040A00A401AB91A6822F001021A6000207047FD
S315080040B05A6C22F400425A64EAE700BF90F83C3092
S315080040C0012B20D0012310B480F83C3031F03003A6
S315080040D0036806D19C6824F070049C609C682143A0
S315080040E09960596841F001015960596821F0040145
S315080040F059605C68002122435A605DF8044B80F8D9
S315080041003C100846704702231846704790F83C3022
S31508004110012B24D0012310B480F83C3031F0300351
S31508004120036806D19C6824F070049C609C6821434F
S31508004130996059685DF8044B41F001015960596866
S3150800414021F00401596059680A435A60DA68002167
S3150800415042F02002DA6080F83C10084670470223D5
S315080041601846704790F83C30012B28D0012370B4CC
S3150800417080F83C3031F03003036806D19C6824F09F
S3150800418070049C609C68214399605968456B0D4C86
S315080041900D4E41F001015960596821F0040159603A
S315080041A059680A435A60DA68AC6242F4005200243D
S315080041B02E63DA6080F83C40204670BC70470221C6
S315080041C008467047E14500086930000890F83C3019
S315080041D0012B20D010B504460223012084F83C00A8
S315080041E084F83D30142A0FD8DFE802F01B0E0E0EB5
S315080041F01F0E0E0E230E0E0E0B0E0E0E270E0E0E95
S3150800420017002068FFF768F90123002084F83D307D
S3150800421084F83C0010BD022070472068FFF7E4FBD5
S31508004220F2E72068FFF796F8EEE72068FFF7D2F87E
S31508004230EAE72068FFF710F9E6E72068FFF79CFB36
S31508004240E2E700BF38B590F83C30012B2FD00D4679
S3150800425002230121044680F83C1080F83D30142AD8
S315080042601ED8DFE802F0391D1D1D4B1D1D1D5E1DE4
S315080042701D1D0B1D1D1D701D1D1D260029460068D0
S31508004280FFF72AF923682869D96941F40061D961D9
S31508004290D96921F48061D961DA6942EA0022DA61D2
S315080042A00123002084F83D3084F83C0038BD022004
S315080042B038BD29460068FFF797FB23682869596DBA
S315080042C041F400615965596D21F4806159655A6D4B
S315080042D042EA00225A65E3E729460068FFF73AF8FA
S315080042E023682A69996941F008019961996921F059
S315080042F00401996199690A439A61D1E729460068D8
S31508004300FFF768F823682869996941F4006199619B
S31508004310996921F4806199619A6942EA00229A6151
S31508004320BEE729460068FFF797F823682A69D9691E
S3150800433041F00801D961D96921F00401D961D96927
S315080043400A43DA61ACE729460068FFF715FB2368DC
S315080043502A69596D41F008015965596D21F0040122
S315080043605965596D0A435A659AE700BF90F83C307B
S31508004370012B1BD0036870B4104CA3420246586840
S315080043809E6815D004F50064A34211D00D688C68A8
S3150800439020F0700026F0800128432143002458604D
S315080043A02046996082F83C4070BC704702207047EE
S315080043B04C6820F470002043E8E700BF002C014059
S315080043C090F83C30012B2BD0F0B491E8E000CC6893
S315080043D00A694B6924F440743C4324F480643443EA
S315080043E024F400642C4324F48054144324F4005425
S315080043F01C438A6A0568134E8B6924F44044224399
S3150800440022F47022B54242EA03430CD00E4A954282
S3150800441009D000226B6480F83C20F0BC1046704737
S315080044200223184670474C6ACA69096A23F470035E
S3150800443043EA045323F08073134323F000730B43BA
S31508004440E7E700BF002C014000340140034690F81E
S315080044503C0001280DD0186810B40A430124002135
S315080044600265084683F83D4083F83C105DF8044B26
S3150800447070470220704700BF90F83C20012A15D0EB
S31508004480034602201A6830B483F83D00906D20F088
S3150800449060409065906D0024012501439165204692
S315080044A083F83D5083F83C4030BC70470220704783
S315080044B090F83C30012B33D04B6870B50D4601217E
S315080044C016468B424FF00202044680F83C1080F8EC
S315080044D03D2027D05CD3934204D10268936823F029
S315080044E008039360142E14D8DFE806F04A13131352
S315080044F0421313133A131313311313130B13131312
S3150800450028002B682268002B5ED1536D23F08003A8
S3150800451053650123002084F83D3084F83C0070BDC3
S31508004520022070472B69AA68E9680068FFF708FA4D
S315080045302268936843F008039360D3E72B682268E0
S31508004540002B46D0536D43F400435365E1E72B68CF
S315080045502268002B33D0D36943F40043D361D8E7EC
S315080045602B68226833B3D36943F08003D361D0E75D
S315080045702B682268CBB1936943F400439361C8E77B
S315080045802B68226863B1936943F080039361C0E79F
S315080045900268936823F47F4323F008039360A1E736
S315080045A0936923F080039361B3E7936923F4004387
S315080045B09361AEE7D36923F08003D361A9E7D36992
S315080045C023F40043D361A4E7536D43F08003536596
S315080045D09FE7536D23F4004353659AE7704700BF7E
S315080045E008B5406A012380F83D30FFF7F7FF08BD9C
S315080045F0704700BF90F83D00704700BF10B50146F0
S3150800460088B000223620FBF7C7FE3620FBF7FCFEF3
S31508004610184BDA6942F01002DA61DB6903F010031D
S31508004620029301A903A8029BFDF7C2F8069BC3B92A
S31508004630FDF740F8104C114B114A2260A3FB0023EA
S315080046409B0C0022013B40F2E73120466360E160A3
S315080046502261A260A261FEF793FD30B1012008B085
S3150800466010BDFDF727F84000E4E72046FDF778F986
S3150800467008B010BD001002403009002083DE1B433D
S3150800468000100040034B1A68D36823F00103D36077
S31508004690704700BF30090020034B1A68D36843F0FF
S315080046A00103D360704700BF30090020FBF7F4BD53
S315080046B00148FEF725BC00BF30090020704700BF3F
S315080046C0704700BFC0B138B52422036880F8692056
S315080046D01A680025044622F001021A601D605D6012
S315080046E09D60FFF7EDFFE56684F8685084F8695029
S315080046F0284684F86A5038BD0120704790F869301A
S31508004700202B01D002207047C9B1C2B190F8683099
S31508004710012BF7D030B400230568A0F852202124D5
S31508004720C36680F869402C68C16444F08001A0F82B
S31508004730502080F868301846296030BC7047012040
S31508004740704700BF90F86A30202B01D002207047CE
S3150800475049B342B390F86830012BF7D083684165B6
S31508004760B3F5805F4FF00101A0F85820A0F85A2051
S3150800477080F868101DD023B90369B3B17F23A0F868
S315080047805C30026800232221C36680F86A109168AB
S3150800479080F8683041F001019160116841F4907128
S315080047A018461160704701207047FF23A0F85C3057
S315080047B0E7E70369002BF8D140F2FF13A0F85C3055
S315080047C0DFE700BFF8B590F86940202C01D0022039
S315080047D0F8BD61B35AB390F86840012CF7D0044687
S315080047E00126006E84F86860134600252268A4F83E
S315080047F052302126E566DFF844E084F869600D4FFB
S315080048000D4EA4F85030E16428324563C0F828E01C
S31508004810C7620663FBF7BAFF236840221A629A68E2
S3150800482084F8685042F0800228469A60F8BD012054
S31508004830F8BD00BF214B00087D4B0008F14A00086F
S31508004840F8B590F86A40202C01D00220F8BD00295E
S3150800485030D0002A2ED090F86830012BF5D00446C7
S315080048600127406E144E84F86870002513462227E7
S315080048700A4621686265A4F85830E56684F86A70C5
S315080048800E4F86620E4E4563C76206632431FBF7F8
S315080048907DFF236884F868501A6842F480721A60AB
S315080048A09A6842F001029A609A6842F040022846E5
S315080048B09A60F8BD0120F8BD314B00086D4B000821
S315080048C07D4B000890F86830012B0FD090F86930BE
S315080048D00122212B80F868201BD090F86A30222B01
S315080048E006D0002380F868301846704702207047C3
S315080048F003689A685206F4D51A6822F480721A6018
S315080049009A6822F001029A609A6822F040029A6038
S31508004910E7E703689A681106DFD59A6822F08002ED
S315080049209A60DAE790F86830012B0FD090F8693072
S315080049300122212B80F868201ED090F86A30222B9D
S3150800494006D0002380F86830184670470220704762
S31508004950036808221A621A6842F480721A609A6812
S3150800496042F001029A609A6842F040029A60002377
S3150800497080F86830184670470268936843F08003E9
S31508004980936090F86A30222BDBD1E1E790F8693022
S31508004990212B10B504461FD094F86A30222B01D07B
S315080049A0002010BD23689A685206F9D59A68606E89
S315080049B022F040029A6010B1FBF72AFF23681A68B2
S315080049C022F490721A609A68202122F001029A60F5
S315080049D0002084F86A1010BD03689A681106DBD5B2
S315080049E09A68006E22F080029A6010B1FBF710FFF9
S315080049F023681A68202122F0C0021A6084F8691018
S31508004A00CAE700BF38B503681A6822F4F0721A605C
S31508004A109A6822F001029A609A68110604460AD535
S31508004A209A68006E22F080029A6020B100234363E0
S31508004A30FBF7EEFE23689A6852060AD59A68606EF6
S31508004A4022F040029A6020B100234363FBF7E0FEA0
S31508004A502368002220210F25A4F852201046A4F826
S31508004A605A201D6284F8691084F86A10E26638BD17
S31508004A7003681A6822F0C00210B51A609A6812060E
S31508004A80044609D59A68006E22F080029A6018B129
S31508004A9000234363FBF7BCFE00202023A4F8520042
S31508004AA084F8693010BD00BF03681A6822F4907252
S31508004AB010B51A609A6822F001029A609A6852063E
S31508004AC004460AD59A68406E22F040029A6020B1E0
S31508004AD000234363FBF79CFE236800200F21202256
S31508004AE0A4F85A00196284F86A2010BD704700BFFE
S31508004AF008B50368406A1B6813F020030BD10268E7
S31508004B00A0F85230936823F080039360136843F04B
S31508004B104003136008BDFFF7E9FF08BD704700BFF3
S31508004B2008B5406AFFF7FAFF08BD00BF704700BF27
S31508004B3008B50368406A1B6813F0200311D10268A0
S31508004B40A0F85A30136823F480731360936823F02F
S31508004B50010393609368202123F04003936080F853
S31508004B606A10FFF7E3FF08BD704700BF08B5406A43
S31508004B70FFF7FAFF08BD00BF704700BF406A08B5D7
S31508004B8090F86930212B1DD090F86A30222B06D078
S31508004B90C36E43F01003C366FFF7EEFF08BD036854
S31508004BA09A685206F4D50022A0F85A201A6822F408
S31508004BB090721A609A68202122F001029A6080F8A1
S31508004BC06A10E5E703689A681106DDD50022A0F8A1
S31508004BD052201A68202122F0C0021A6080F8691053
S31508004BE0D2E700BF08B5436A0022A3F85A20184640
S31508004BF0A3F85220FFF7C0FF08BD00BF704700BFEB
S31508004C0038B503681A6822F4F0720446006E1A6012
S31508004C109A6822F001029A6028B19A6812F0800216
S31508004C2018BF234A4263616E29B19A6812F040029E
S31508004C3018BF204A4A639A6815060BD59A6822F067
S31508004C4080029A6030B1FBF7FDFD28B3226E236817
S31508004C50002151639A6851060CD59A68606E22F055
S31508004C6040029A6030B1FBF7EDFD98B1626E236899
S31508004C7000215163002220210F25A4F85220204646
S31508004C80A4F85A20E2661D6284F8691084F86A104E
S31508004C90FFF7B4FF002038BD23689A685206F9D595
S31508004CA09A68606E22F040029A600028DBD1F1E72C
S31508004CB0F14C0008B94C000838B5436A596E1A6EAB
S31508004CC00020486312B1526B02B138BD1C6800223D
S31508004CD020210F25A3F852201846A3F85A20DA6691
S31508004CE0256283F8691083F86A10FFF787FF38BDD5
S31508004CF038B5436A196E5A6E0020486312B1526B72
S31508004D0002B138BD1C68002220210F25A3F85220C5
S31508004D101846A3F85A20DA66256283F8691083F8DC
S31508004D206A10FFF76BFF38BD704700BF03681A6843
S31508004D3022F0C00210B51A609A6812F08002044682
S31508004D400DD09A68016E22F080029A60A9B10F4BC5
S31508004D504B630846FBF776FD50B9002010BD2023AB
S31508004D60A0F8522080F86930FFF7DEFF002010BD5A
S31508004D70206E436B9847002010BD2023A0F85210E0
S31508004D8080F86930FFF7D0FFE7E700BF914D0008CC
S31508004D9008B5436A00212022A3F85210184683F862
S31508004DA06920FFF7C1FF08BD704700BF38B5036823
S31508004DB01A6822F490721A609A6822F001029A60C0
S31508004DC09A6812F0400204460DD09A68416E22F0A5
S31508004DD040029A60B9B1114B4B630846FBF732FDA6
S31508004DE060B9002038BD20210F25A0F85A201D6281
S31508004DF080F86A10FFF7D8FF002038BD606E436B55
S31508004E009847002038BD0F252022A0F85A101D62A9
S31508004E1080F86A20FFF7C8FFE3E700BF214E0008C5
S31508004E20436A10B5196800200F242022A3F85A00F7
S31508004E300C62184683F86A20FFF7B6FF10BD00BF5C
S31508004E400268936943F004039361704790F86820F9
S31508004E50012A16D00268242130B480F86910116836
S31508004E6021F00C011160116803460024202541F049
S31508004E7008011160204683F8695083F8684030BC01
S31508004E8070470220704700BF90F86820012A16D0A4
S31508004E900268242130B480F86910116821F00C01E9
S31508004EA01160116803460024202541F004011160B1
S31508004EB0204683F8695083F8684030BC7047022062
S31508004EC0704700BF90F86820012A13D003462422B1
S31508004ED0006810B483F8692082692024002142F012
S31508004EE002028261084683F8694083F868105DF813
S31508004EF0044B70470220704790F8692090F86A00C2
S31508004F0010437047C06E7047F8B5054693482C683D
S31508004F10AF682E6923686A69E969D5F818E03E43DF
S31508004F20324323F416430A4323F00C031343236046
S31508004F306768EE682A6A27F440573E436660A368A6
S31508004F404EEA020223F4306313438442A3603FD03F
S31508004F50834B9C425ED0834B9C426BD0824B9C42D7
S31508004F6019D0824B9C4205D0B1F5004F00F0CE8097
S31508004F700120F8BD03F5E0331B6B03F44003B3F5DA
S31508004F80800F7ED011D9B3F5000F5FD0B3F5400F6F
S31508004F9000F09980E8E703F5E2331B6B03F440134E
S31508004FA0B3F5801F6DD000F28780002BDCD1B1F5F8
S31508004FB0004F02D1FCF77EFB6EE0FCF77BFB6B68CB
S31508004FC000EB5300B0FBF3F080B2E0600020F8BDC0
S31508004FD0674B684A1B6B03F00303B1F5004FD35CBC
S31508004FE040F09780082B00F2918001A252F823F036
S31508004FF0B54F000895500008CD5000080D5100081F
S31508005000895000080D5100080D5100080D5100087F
S315080050105350000803F5E6331B6B03F44033B3F52E
S31508005020803F2ED0C1D9B3F5003F0FD0B3F5403F2E
S3150800503049D099E703F5E4331B6B03F44023B3F532
S31508005040802F1ED0B1D9B3F5002F4FD1B1F5004F3F
S315080050500DD16A68530803F58033B3FBF2F2C2F345
S31508005060420322F00F0213439BB2002022E06A6833
S31508005070530803F50043B3FBF2F39BB2E360002049
S31508005080F8BDB1F5004F02D1FCF712FA04E0FCF7BF
S315080050900FFA94E7FCF726FB6A682C68530803EBBB
S315080050A04000B0FBF2F0C0F3420320F00F000343C8
S315080050B09BB20020E360F8BDB3F5001FC6D0B3F578
S315080050C0401F7FF451AFB1F5004F13D169684A0804
S315080050D002F5740303F51053B3FBF1F3C3F342026D
S315080050E023F00F0313439BB20020E3E7B3F5402FE9
S315080050F0E9D039E769684A0802F5F40303F59053DD
S31508005100B3FBF1F39BB2E3600020F8BD0023012056
S31508005110D0E7082B3FF62CAF01A252F823F000BFC8
S31508005120BB4F000845510008F5500008714F0008AC
S315080051308F500008714F0008714F0008714F000822
S315080051406F500008FCF7CEFA6B68044A00EB530070
S31508005150B0FBF3F080B2D0600020F8BD0038014003
S315080051600044004000480040004C00400050004009
S31508005170001002404C8D0008436ADA0710B406D5C1
S315080051800468826A616821F400310A4362609C07F8
S3150800519006D50468C26A616821F480310A436260F0
S315080051A0590706D50468026B616821F480210A4311
S315080051B062601A0706D50468426B616821F40041EB
S315080051C00A436260DC0606D50468826BA16821F48E
S315080051D080510A43A260990606D50468C26BA16885
S315080051E021F400510A43A2605A0609D50168046CE5
S315080051F04A6822F480122243B4F5801F4A600BD015
S315080052001B0606D50168826C4B6823F400231343FA
S315080052104B605DF8044B70474C68426C24F4C0043C
S3150800522022434A60ECE700BF2DE9F843089D804613
S315080052300F4616469946D8F8004001E06B1C0AD17D
S31508005240E06937EA00030CBF012000208642F5D04A
S315080052500020BDE8F8833DB1FBF726F8C9EB00004E
S315080052608542E8D2D8F80040236823F4D073236037
S31508005270A368202223F001030021A360032088F8F5
S31508005280692088F8681088F86A20BDE8F88300BFA6
S315080052902DE9F0410D4690F86910202984B003D015
S315080052A0022004B0BDE8F08195B38AB31F4690F892
S315080052B06830012B0446F3D0002001212123E06643
S315080052C084F8681084F869300392FAF7EDFF039AB8
S315080052D0A4F850208046A4F85220B4F85260B6B21A
S315080052E0434600228021204606B3B4F85260009750
S315080052F0013EB6B2A4F85260FFF796FFA0B9A368BC
S31508005300B3F5805F06D023682A781A850135E4E765
S315080053100120C6E72369002BF5D135F8023B226840
S31508005320C3F308031385D8E70320BAE70097324684
S315080053304021FFF779FF0028F6D1202384F868007A
S3150800534084F86930ADE700BF2DE9F0430E4690F8C2
S315080053506A10202985B003D0022005B0BDE8F08385
S31508005360002E3CD0002A3AD01F4690F86830012B10
S315080053700446F1D0222300200121E06684F8681053
S3150800538084F86A300392FAF78FFFA368039AA4F8A1
S315080053905820B3F5805F8146A4F85A203FD093B3CE
S315080053A0B4F85C80B4F85A50ADB24B4600222021BE
S315080053B0204605B3B4F85A500097013DADB2A4F89B
S315080053C05A50FFF731FFE0B9A368B3F5805F08D0FC
S315080053D023689B8C08EA030333700136E2E7012051
S315080053E0BBE72369002BF3D123689B8C08EA0303E8
S315080053F026F8023BD6E784F86850284684F86A10EF
S31508005400ABE70320A9E7236923B14FF07F08A4F887
S315080054105C80C7E74FF0FF08A4F85C80C2E7236901
S31508005420002BF7D140F2FF18A4F85C80BAE700BF5A
S3150800543070B50446002582B0C566FAF735FF2368BD
S315080054401A68120706460CD41B685B0717D4202374
S31508005450002084F8693084F8680084F86A3002B05D
S3150800546070BD6FF07E4300932A4603464FF4001141
S315080054702046FFF7D9FE80B1032002B070BD6FF059
S315080054807E420092334600224FF480012046FFF701
S31508005490CBFE0028DBD00320EFE72368D4E700BF64
S315080054A090B390F8693010B503F0FF02044603B3D1
S315080054B02268242384F86930136823F001031360F3
S315080054C02046FFF721FD01281CD0636AB3B923687B
S315080054D05A6822F490425A609A6822F02A029A6020
S315080054E01A6842F0010220461A60BDE81040FFF72C
S315080054F09FBF80F8682000F0EBFCD9E72046FFF74D
S315080055003BFEE4E7012010BD01207047002836D095
S3150800551090F8693010B503F0FF02044623B32268F9
S31508005520242384F86930136823F0010313602046A6
S31508005530FFF7EAFC012820D0636AD3B923685A68C2
